{"abi":[{"type":"constructor","inputs":[{"name":"initialSupply","type":"uint256","internalType":"uint256"}],"stateMutability":"nonpayable"},{"type":"function","name":"allowance","inputs":[{"name":"owner","type":"address","internalType":"address"},{"name":"spender","type":"address","internalType":"address"}],"outputs":[{"name":"","type":"uint256","internalType":"uint256"}],"stateMutability":"view"},{"type":"function","name":"approve","inputs":[{"name":"spender","type":"address","internalType":"address"},{"name":"value","type":"uint256","internalType":"uint256"}],"outputs":[{"name":"","type":"bool","internalType":"bool"}],"stateMutability":"nonpayable"},{"type":"function","name":"balanceOf","inputs":[{"name":"account","type":"address","internalType":"address"}],"outputs":[{"name":"","type":"uint256","internalType":"uint256"}],"stateMutability":"view"},{"type":"function","name":"burn","inputs":[{"name":"amount","type":"uint256","internalType":"uint256"}],"outputs":[],"stateMutability":"nonpayable"},{"type":"function","name":"decimals","inputs":[],"outputs":[{"name":"","type":"uint8","internalType":"uint8"}],"stateMutability":"view"},{"type":"function","name":"mint","inputs":[{"name":"to","type":"address","internalType":"address"},{"name":"amount","type":"uint256","internalType":"uint256"}],"outputs":[],"stateMutability":"nonpayable"},{"type":"function","name":"name","inputs":[],"outputs":[{"name":"","type":"string","internalType":"string"}],"stateMutability":"view"},{"type":"function","name":"owner","inputs":[],"outputs":[{"name":"","type":"address","internalType":"address"}],"stateMutability":"view"},{"type":"function","name":"pause","inputs":[],"outputs":[],"stateMutability":"nonpayable"},{"type":"function","name":"paused","inputs":[],"outputs":[{"name":"","type":"bool","internalType":"bool"}],"stateMutability":"view"},{"type":"function","name":"renounceOwnership","inputs":[],"outputs":[],"stateMutability":"nonpayable"},{"type":"function","name":"symbol","inputs":[],"outputs":[{"name":"","type":"string","internalType":"string"}],"stateMutability":"view"},{"type":"function","name":"totalSupply","inputs":[],"outputs":[{"name":"","type":"uint256","internalType":"uint256"}],"stateMutability":"view"},{"type":"function","name":"transfer","inputs":[{"name":"to","type":"address","internalType":"address"},{"name":"value","type":"uint256","internalType":"uint256"}],"outputs":[{"name":"","type":"bool","internalType":"bool"}],"stateMutability":"nonpayable"},{"type":"function","name":"transferFrom","inputs":[{"name":"from","type":"address","internalType":"address"},{"name":"to","type":"address","internalType":"address"},{"name":"value","type":"uint256","internalType":"uint256"}],"outputs":[{"name":"","type":"bool","internalType":"bool"}],"stateMutability":"nonpayable"},{"type":"function","name":"transferOwnership","inputs":[{"name":"newOwner","type":"address","internalType":"address"}],"outputs":[],"stateMutability":"nonpayable"},{"type":"function","name":"unpause","inputs":[],"outputs":[],"stateMutability":"nonpayable"},{"type":"event","name":"Approval","inputs":[{"name":"owner","type":"address","indexed":true,"internalType":"address"},{"name":"spender","type":"address","indexed":true,"internalType":"address"},{"name":"value","type":"uint256","indexed":false,"internalType":"uint256"}],"anonymous":false},{"type":"event","name":"OwnershipTransferred","inputs":[{"name":"previousOwner","type":"address","indexed":true,"internalType":"address"},{"name":"newOwner","type":"address","indexed":true,"internalType":"address"}],"anonymous":false},{"type":"event","name":"Paused","inputs":[{"name":"account","type":"address","indexed":false,"internalType":"address"}],"anonymous":false},{"type":"event","name":"TokensBurned","inputs":[{"name":"from","type":"address","indexed":true,"internalType":"address"},{"name":"amount","type":"uint256","indexed":false,"internalType":"uint256"}],"anonymous":false},{"type":"event","name":"TokensMinted","inputs":[{"name":"to","type":"address","indexed":true,"internalType":"address"},{"name":"amount","type":"uint256","indexed":false,"internalType":"uint256"}],"anonymous":false},{"type":"event","name":"Transfer","inputs":[{"name":"from","type":"address","indexed":true,"internalType":"address"},{"name":"to","type":"address","indexed":true,"internalType":"address"},{"name":"value","type":"uint256","indexed":false,"internalType":"uint256"}],"anonymous":false},{"type":"event","name":"Unpaused","inputs":[{"name":"account","type":"address","indexed":false,"internalType":"address"}],"anonymous":false},{"type":"error","name":"BasedFusaka__InsufficientBalance","inputs":[]},{"type":"error","name":"BasedFusaka__ZeroAddress","inputs":[]},{"type":"error","name":"BasedFusaka__ZeroAmount","inputs":[]},{"type":"error","name":"ERC20InsufficientAllowance","inputs":[{"name":"spender","type":"address","internalType":"address"},{"name":"allowance","type":"uint256","internalType":"uint256"},{"name":"needed","type":"uint256","internalType":"uint256"}]},{"type":"error","name":"ERC20InsufficientBalance","inputs":[{"name":"sender","type":"address","internalType":"address"},{"name":"balance","type":"uint256","internalType":"uint256"},{"name":"needed","type":"uint256","internalType":"uint256"}]},{"type":"error","name":"ERC20InvalidApprover","inputs":[{"name":"approver","type":"address","internalType":"address"}]},{"type":"error","name":"ERC20InvalidReceiver","inputs":[{"name":"receiver","type":"address","internalType":"address"}]},{"type":"error","name":"ERC20InvalidSender","inputs":[{"name":"sender","type":"address","internalType":"address"}]},{"type":"error","name":"ERC20InvalidSpender","inputs":[{"name":"spender","type":"address","internalType":"address"}]},{"type":"error","name":"EnforcedPause","inputs":[]},{"type":"error","name":"ExpectedPause","inputs":[]},{"type":"error","name":"OwnableInvalidOwner","inputs":[{"name":"owner","type":"address","internalType":"address"}]},{"type":"error","name":"OwnableUnauthorizedAccount","inputs":[{"name":"account","type":"address","internalType":"address"}]}],"bytecode":{"object":"0x608060405234801561000f575f5ffd5b506040516123ad3803806123ad833981810160405281019061003191906105d4565b336040518060400160405280600b81526020017f4261736564467573616b610000000000000000000000000000000000000000008152506040518060400160405280600381526020017f42464b000000000000000000000000000000000000000000000000000000000081525081600390816100ad9190610833565b5080600490816100bd9190610833565b5050505f73ffffffffffffffffffffffffffffffffffffffff168173ffffffffffffffffffffffffffffffffffffffff1603610130575f6040517f1e4fbdf70000000000000000000000000000000000000000000000000000000081526004016101279190610941565b60405180910390fd5b61013f816101b360201b60201c565b505f8103610179576040517fe2ba04ec00000000000000000000000000000000000000000000000000000000815260040160405180910390fd5b6101ad3361018b61027660201b60201c565b600a6101979190610ac2565b836101a29190610b0c565b61027e60201b60201c565b50610bdd565b5f60055f9054906101000a900473ffffffffffffffffffffffffffffffffffffffff1690508160055f6101000a81548173ffffffffffffffffffffffffffffffffffffffff021916908373ffffffffffffffffffffffffffffffffffffffff1602179055508173ffffffffffffffffffffffffffffffffffffffff168173ffffffffffffffffffffffffffffffffffffffff167f8be0079c531659141344cd1fd0a4f28419497f9722a3daafe3b4186f6b6457e060405160405180910390a35050565b5f6012905090565b5f73ffffffffffffffffffffffffffffffffffffffff168273ffffffffffffffffffffffffffffffffffffffff16036102ee575f6040517fec442f050000000000000000000000000000000000000000000000000000000081526004016102e59190610941565b60405180910390fd5b6102ff5f838361030360201b60201c565b5050565b61031161032760201b60201c565b61032283838361036e60201b60201c565b505050565b61033561058760201b60201c565b1561036c576040517fd93c066500000000000000000000000000000000000000000000000000000000815260040160405180910390fd5b565b5f73ffffffffffffffffffffffffffffffffffffffff168373ffffffffffffffffffffffffffffffffffffffff16036103be578060025f8282546103b29190610b4d565b9250508190555061048c565b5f5f5f8573ffffffffffffffffffffffffffffffffffffffff1673ffffffffffffffffffffffffffffffffffffffff1681526020019081526020015f2054905081811015610447578381836040517fe450d38c00000000000000000000000000000000000000000000000000000000815260040161043e93929190610b8f565b60405180910390fd5b8181035f5f8673ffffffffffffffffffffffffffffffffffffffff1673ffffffffffffffffffffffffffffffffffffffff1681526020019081526020015f2081905550505b5f73ffffffffffffffffffffffffffffffffffffffff168273ffffffffffffffffffffffffffffffffffffffff16036104d3578060025f828254039250508190555061051d565b805f5f8473ffffffffffffffffffffffffffffffffffffffff1673ffffffffffffffffffffffffffffffffffffffff1681526020019081526020015f205f82825401925050819055505b8173ffffffffffffffffffffffffffffffffffffffff168373ffffffffffffffffffffffffffffffffffffffff167fddf252ad1be2c89b69c2b068fc378daa952ba7f163c4a11628f55a4df523b3ef8360405161057a9190610bc4565b60405180910390a3505050565b5f600560149054906101000a900460ff16905090565b5f5ffd5b5f819050919050565b6105b3816105a1565b81146105bd575f5ffd5b50565b5f815190506105ce816105aa565b92915050565b5f602082840312156105e9576105e861059d565b5b5f6105f6848285016105c0565b91505092915050565b5f81519050919050565b7f4e487b71000000000000000000000000000000000000000000000000000000005f52604160045260245ffd5b7f4e487b71000000000000000000000000000000000000000000000000000000005f52602260045260245ffd5b5f600282049050600182168061067a57607f821691505b60208210810361068d5761068c610636565b5b50919050565b5f819050815f5260205f209050919050565b5f6020601f8301049050919050565b5f82821b905092915050565b5f600883026106ef7fffffffffffffffffffffffffffffffffffffffffffffffffffffffffffffffff826106b4565b6106f986836106b4565b95508019841693508086168417925050509392505050565b5f819050919050565b5f61073461072f61072a846105a1565b610711565b6105a1565b9050919050565b5f819050919050565b61074d8361071a565b6107616107598261073b565b8484546106c0565b825550505050565b5f5f905090565b610778610769565b610783818484610744565b505050565b5b818110156107a65761079b5f82610770565b600181019050610789565b5050565b601f8211156107eb576107bc81610693565b6107c5846106a5565b810160208510156107d4578190505b6107e86107e0856106a5565b830182610788565b50505b505050565b5f82821c905092915050565b5f61080b5f19846008026107f0565b1980831691505092915050565b5f61082383836107fc565b9150826002028217905092915050565b61083c826105ff565b67ffffffffffffffff81111561085557610854610609565b5b61085f8254610663565b61086a8282856107aa565b5f60209050601f83116001811461089b575f8415610889578287015190505b6108938582610818565b8655506108fa565b601f1984166108a986610693565b5f5b828110156108d0578489015182556001820191506020850194506020810190506108ab565b868310156108ed57848901516108e9601f8916826107fc565b8355505b6001600288020188555050505b505050505050565b5f73ffffffffffffffffffffffffffffffffffffffff82169050919050565b5f61092b82610902565b9050919050565b61093b81610921565b82525050565b5f6020820190506109545f830184610932565b92915050565b7f4e487b71000000000000000000000000000000000000000000000000000000005f52601160045260245ffd5b5f8160011c9050919050565b5f5f8291508390505b60018511156109dc578086048111156109b8576109b761095a565b5b60018516156109c75780820291505b80810290506109d585610987565b945061099c565b94509492505050565b5f826109f45760019050610aaf565b81610a01575f9050610aaf565b8160018114610a175760028114610a2157610a50565b6001915050610aaf565b60ff841115610a3357610a3261095a565b5b8360020a915084821115610a4a57610a4961095a565b5b50610aaf565b5060208310610133831016604e8410600b8410161715610a855782820a905083811115610a8057610a7f61095a565b5b610aaf565b610a928484846001610993565b92509050818404811115610aa957610aa861095a565b5b81810290505b9392505050565b5f60ff82169050919050565b5f610acc826105a1565b9150610ad783610ab6565b9250610b047fffffffffffffffffffffffffffffffffffffffffffffffffffffffffffffffff84846109e5565b905092915050565b5f610b16826105a1565b9150610b21836105a1565b9250828202610b2f816105a1565b91508282048414831517610b4657610b4561095a565b5b5092915050565b5f610b57826105a1565b9150610b62836105a1565b9250828201905080821115610b7a57610b7961095a565b5b92915050565b610b89816105a1565b82525050565b5f606082019050610ba25f830186610932565b610baf6020830185610b80565b610bbc6040830184610b80565b949350505050565b5f602082019050610bd75f830184610b80565b92915050565b6117c380610bea5f395ff3fe608060405234801561000f575f5ffd5b5060043610610109575f3560e01c80635c975abb116100a05780638da5cb5b1161006f5780638da5cb5b1461026b57806395d89b4114610289578063a9059cbb146102a7578063dd62ed3e146102d7578063f2fde38b1461030757610109565b80635c975abb1461020957806370a0823114610227578063715018a6146102575780638456cb591461026157610109565b8063313ce567116100dc578063313ce567146101a95780633f4ba83a146101c757806340c10f19146101d157806342966c68146101ed57610109565b806306fdde031461010d578063095ea7b31461012b57806318160ddd1461015b57806323b872dd14610179575b5f5ffd5b610115610323565b6040516101229190611257565b60405180910390f35b61014560048036038101906101409190611308565b6103b3565b6040516101529190611360565b60405180910390f35b6101636103d5565b6040516101709190611388565b60405180910390f35b610193600480360381019061018e91906113a1565b6103de565b6040516101a09190611360565b60405180910390f35b6101b161040c565b6040516101be919061140c565b60405180910390f35b6101cf610414565b005b6101eb60048036038101906101e69190611308565b610426565b005b61020760048036038101906102029190611425565b610564565b005b61021161065d565b60405161021e9190611360565b60405180910390f35b610241600480360381019061023c9190611450565b610673565b60405161024e9190611388565b60405180910390f35b61025f6106b8565b005b6102696106cb565b005b6102736106dd565b604051610280919061148a565b60405180910390f35b610291610705565b60405161029e9190611257565b60405180910390f35b6102c160048036038101906102bc9190611308565b610795565b6040516102ce9190611360565b60405180910390f35b6102f160048036038101906102ec91906114a3565b6107b7565b6040516102fe9190611388565b60405180910390f35b610321600480360381019061031c9190611450565b610839565b005b6060600380546103329061150e565b80601f016020809104026020016040519081016040528092919081815260200182805461035e9061150e565b80156103a95780601f10610380576101008083540402835291602001916103a9565b820191905f5260205f20905b81548152906001019060200180831161038c57829003601f168201915b5050505050905090565b5f5f6103bd6108bd565b90506103ca8185856108c4565b600191505092915050565b5f600254905090565b5f5f6103e86108bd565b90506103f58582856108d6565b610400858585610969565b60019150509392505050565b5f6012905090565b61041c610a59565b610424610ae0565b565b61042e610a59565b5f73ffffffffffffffffffffffffffffffffffffffff168273ffffffffffffffffffffffffffffffffffffffff1603610493576040517fe953759e00000000000000000000000000000000000000000000000000000000815260040160405180910390fd5b5f81036104cc576040517fe2ba04ec00000000000000000000000000000000000000000000000000000000815260040160405180910390fd5b6104f4826104d861040c565b600a6104e4919061169a565b836104ef91906116e4565b610b42565b8173ffffffffffffffffffffffffffffffffffffffff167f3f2c9d57c068687834f0de942a9babb9e5acab57d516d3480a3c16ee165a427361053461040c565b600a610540919061169a565b8361054b91906116e4565b6040516105589190611388565b60405180910390a25050565b5f810361059d576040517fe2ba04ec00000000000000000000000000000000000000000000000000000000815260040160405180910390fd5b5f6105a661040c565b600a6105b2919061169a565b826105bd91906116e4565b9050806105c933610673565b1015610601576040517f09bdcc8200000000000000000000000000000000000000000000000000000000815260040160405180910390fd5b61060b3382610bc1565b3373ffffffffffffffffffffffffffffffffffffffff167ffd38818f5291bf0bb3a2a48aadc06ba8757865d1dabd804585338aab3009dcb6826040516106519190611388565b60405180910390a25050565b5f600560149054906101000a900460ff16905090565b5f5f5f8373ffffffffffffffffffffffffffffffffffffffff1673ffffffffffffffffffffffffffffffffffffffff1681526020019081526020015f20549050919050565b6106c0610a59565b6106c95f610c40565b565b6106d3610a59565b6106db610d03565b565b5f60055f9054906101000a900473ffffffffffffffffffffffffffffffffffffffff16905090565b6060600480546107149061150e565b80601f01602080910402602001604051908101604052809291908181526020018280546107409061150e565b801561078b5780601f106107625761010080835404028352916020019161078b565b820191905f5260205f20905b81548152906001019060200180831161076e57829003601f168201915b5050505050905090565b5f5f61079f6108bd565b90506107ac818585610969565b600191505092915050565b5f60015f8473ffffffffffffffffffffffffffffffffffffffff1673ffffffffffffffffffffffffffffffffffffffff1681526020019081526020015f205f8373ffffffffffffffffffffffffffffffffffffffff1673ffffffffffffffffffffffffffffffffffffffff1681526020019081526020015f2054905092915050565b610841610a59565b5f73ffffffffffffffffffffffffffffffffffffffff168173ffffffffffffffffffffffffffffffffffffffff16036108b1575f6040517f1e4fbdf70000000000000000000000000000000000000000000000000000000081526004016108a8919061148a565b60405180910390fd5b6108ba81610c40565b50565b5f33905090565b6108d18383836001610d66565b505050565b5f6108e184846107b7565b90507fffffffffffffffffffffffffffffffffffffffffffffffffffffffffffffffff8110156109635781811015610954578281836040517ffb8f41b200000000000000000000000000000000000000000000000000000000815260040161094b93929190611725565b60405180910390fd5b61096284848484035f610d66565b5b50505050565b5f73ffffffffffffffffffffffffffffffffffffffff168373ffffffffffffffffffffffffffffffffffffffff16036109d9575f6040517f96c6fd1e0000000000000000000000000000000000000000000000000000000081526004016109d0919061148a565b60405180910390fd5b5f73ffffffffffffffffffffffffffffffffffffffff168273ffffffffffffffffffffffffffffffffffffffff1603610a49575f6040517fec442f05000000000000000000000000000000000000000000000000000000008152600401610a40919061148a565b60405180910390fd5b610a54838383610f35565b505050565b610a616108bd565b73ffffffffffffffffffffffffffffffffffffffff16610a7f6106dd565b73ffffffffffffffffffffffffffffffffffffffff1614610ade57610aa26108bd565b6040517f118cdaa7000000000000000000000000000000000000000000000000000000008152600401610ad5919061148a565b60405180910390fd5b565b610ae8610f4d565b5f600560146101000a81548160ff0219169083151502179055507f5db9ee0a495bf2e6ff9c91a7834c1ba4fdd244a5e8aa4e537bd38aeae4b073aa610b2b6108bd565b604051610b38919061148a565b60405180910390a1565b5f73ffffffffffffffffffffffffffffffffffffffff168273ffffffffffffffffffffffffffffffffffffffff1603610bb2575f6040517fec442f05000000000000000000000000000000000000000000000000000000008152600401610ba9919061148a565b60405180910390fd5b610bbd5f8383610f35565b5050565b5f73ffffffffffffffffffffffffffffffffffffffff168273ffffffffffffffffffffffffffffffffffffffff1603610c31575f6040517f96c6fd1e000000000000000000000000000000000000000000000000000000008152600401610c28919061148a565b60405180910390fd5b610c3c825f83610f35565b5050565b5f60055f9054906101000a900473ffffffffffffffffffffffffffffffffffffffff1690508160055f6101000a81548173ffffffffffffffffffffffffffffffffffffffff021916908373ffffffffffffffffffffffffffffffffffffffff1602179055508173ffffffffffffffffffffffffffffffffffffffff168173ffffffffffffffffffffffffffffffffffffffff167f8be0079c531659141344cd1fd0a4f28419497f9722a3daafe3b4186f6b6457e060405160405180910390a35050565b610d0b610f8d565b6001600560146101000a81548160ff0219169083151502179055507f62e78cea01bee320cd4e420270b5ea74000d11b0c9f74754ebdbfc544b05a258610d4f6108bd565b604051610d5c919061148a565b60405180910390a1565b5f73ffffffffffffffffffffffffffffffffffffffff168473ffffffffffffffffffffffffffffffffffffffff1603610dd6575f6040517fe602df05000000000000000000000000000000000000000000000000000000008152600401610dcd919061148a565b60405180910390fd5b5f73ffffffffffffffffffffffffffffffffffffffff168373ffffffffffffffffffffffffffffffffffffffff1603610e46575f6040517f94280d62000000000000000000000000000000000000000000000000000000008152600401610e3d919061148a565b60405180910390fd5b8160015f8673ffffffffffffffffffffffffffffffffffffffff1673ffffffffffffffffffffffffffffffffffffffff1681526020019081526020015f205f8573ffffffffffffffffffffffffffffffffffffffff1673ffffffffffffffffffffffffffffffffffffffff1681526020019081526020015f20819055508015610f2f578273ffffffffffffffffffffffffffffffffffffffff168473ffffffffffffffffffffffffffffffffffffffff167f8c5be1e5ebec7d5bd14f71427d1e84f3dd0314c0f7b2291e5b200ac8c7c3b92584604051610f269190611388565b60405180910390a35b50505050565b610f3d610f8d565b610f48838383610fce565b505050565b610f5561065d565b610f8b576040517f8dfc202b00000000000000000000000000000000000000000000000000000000815260040160405180910390fd5b565b610f9561065d565b15610fcc576040517fd93c066500000000000000000000000000000000000000000000000000000000815260040160405180910390fd5b565b5f73ffffffffffffffffffffffffffffffffffffffff168373ffffffffffffffffffffffffffffffffffffffff160361101e578060025f828254611012919061175a565b925050819055506110ec565b5f5f5f8573ffffffffffffffffffffffffffffffffffffffff1673ffffffffffffffffffffffffffffffffffffffff1681526020019081526020015f20549050818110156110a7578381836040517fe450d38c00000000000000000000000000000000000000000000000000000000815260040161109e93929190611725565b60405180910390fd5b8181035f5f8673ffffffffffffffffffffffffffffffffffffffff1673ffffffffffffffffffffffffffffffffffffffff1681526020019081526020015f2081905550505b5f73ffffffffffffffffffffffffffffffffffffffff168273ffffffffffffffffffffffffffffffffffffffff1603611133578060025f828254039250508190555061117d565b805f5f8473ffffffffffffffffffffffffffffffffffffffff1673ffffffffffffffffffffffffffffffffffffffff1681526020019081526020015f205f82825401925050819055505b8173ffffffffffffffffffffffffffffffffffffffff168373ffffffffffffffffffffffffffffffffffffffff167fddf252ad1be2c89b69c2b068fc378daa952ba7f163c4a11628f55a4df523b3ef836040516111da9190611388565b60405180910390a3505050565b5f81519050919050565b5f82825260208201905092915050565b8281835e5f83830152505050565b5f601f19601f8301169050919050565b5f611229826111e7565b61123381856111f1565b9350611243818560208601611201565b61124c8161120f565b840191505092915050565b5f6020820190508181035f83015261126f818461121f565b905092915050565b5f5ffd5b5f73ffffffffffffffffffffffffffffffffffffffff82169050919050565b5f6112a48261127b565b9050919050565b6112b48161129a565b81146112be575f5ffd5b50565b5f813590506112cf816112ab565b92915050565b5f819050919050565b6112e7816112d5565b81146112f1575f5ffd5b50565b5f81359050611302816112de565b92915050565b5f5f6040838503121561131e5761131d611277565b5b5f61132b858286016112c1565b925050602061133c858286016112f4565b9150509250929050565b5f8115159050919050565b61135a81611346565b82525050565b5f6020820190506113735f830184611351565b92915050565b611382816112d5565b82525050565b5f60208201905061139b5f830184611379565b92915050565b5f5f5f606084860312156113b8576113b7611277565b5b5f6113c5868287016112c1565b93505060206113d6868287016112c1565b92505060406113e7868287016112f4565b9150509250925092565b5f60ff82169050919050565b611406816113f1565b82525050565b5f60208201905061141f5f8301846113fd565b92915050565b5f6020828403121561143a57611439611277565b5b5f611447848285016112f4565b91505092915050565b5f6020828403121561146557611464611277565b5b5f611472848285016112c1565b91505092915050565b6114848161129a565b82525050565b5f60208201905061149d5f83018461147b565b92915050565b5f5f604083850312156114b9576114b8611277565b5b5f6114c6858286016112c1565b92505060206114d7858286016112c1565b9150509250929050565b7f4e487b71000000000000000000000000000000000000000000000000000000005f52602260045260245ffd5b5f600282049050600182168061152557607f821691505b602082108103611538576115376114e1565b5b50919050565b7f4e487b71000000000000000000000000000000000000000000000000000000005f52601160045260245ffd5b5f8160011c9050919050565b5f5f8291508390505b60018511156115c05780860481111561159c5761159b61153e565b5b60018516156115ab5780820291505b80810290506115b98561156b565b9450611580565b94509492505050565b5f826115d85760019050611693565b816115e5575f9050611693565b81600181146115fb576002811461160557611634565b6001915050611693565b60ff8411156116175761161661153e565b5b8360020a91508482111561162e5761162d61153e565b5b50611693565b5060208310610133831016604e8410600b84101617156116695782820a9050838111156116645761166361153e565b5b611693565b6116768484846001611577565b9250905081840481111561168d5761168c61153e565b5b81810290505b9392505050565b5f6116a4826112d5565b91506116af836113f1565b92506116dc7fffffffffffffffffffffffffffffffffffffffffffffffffffffffffffffffff84846115c9565b905092915050565b5f6116ee826112d5565b91506116f9836112d5565b9250828202611707816112d5565b9150828204841483151761171e5761171d61153e565b5b5092915050565b5f6060820190506117385f83018661147b565b6117456020830185611379565b6117526040830184611379565b949350505050565b5f611764826112d5565b915061176f836112d5565b92508282019050808211156117875761178661153e565b5b9291505056fea2646970667358221220cae2e4fd8847a0ccf873666f39cc4b0b304feeb02186eb6656df31eb10fd054064736f6c634300081e0033","linkReferences":{}},"methodIdentifiers":{"allowance(address,address)":"dd62ed3e","approve(address,uint256)":"095ea7b3","balanceOf(address)":"70a08231","burn(uint256)":"42966c68","decimals()":"313ce567","mint(address,uint256)":"40c10f19","name()":"06fdde03","owner()":"8da5cb5b","pause()":"8456cb59","paused()":"5c975abb","renounceOwnership()":"715018a6","symbol()":"95d89b41","totalSupply()":"18160ddd","transfer(address,uint256)":"a9059cbb","transferFrom(address,address,uint256)":"23b872dd","transferOwnership(address)":"f2fde38b","unpause()":"3f4ba83a"},"id":29}